:100000000C9463000C948B000C948B000C944E04A5
:100010000C944E040C944E040C948B000C948B00A6
:100020000C948B000C948B000C948B000C948B0024
:100030000C948B000C948B000C948B000C948B0014
:100040000C9404040C948B000C94D2030C94AC0319
:100050000C948B000C948B000C948B000C948B00F4
:100060000C948B000C948B000000000024002700EF
:100070002A0000000008000201000003040700003D
:1000800000000000000000000000230026002900FE
:1000900000000000250028002B00040404040404D0
:1000A0000404020202020202030303030303010227
:1000B00004081020408001020408102001020408F6
:1000C0001020C604640A11241FBECFEFD8E0DEBFA3
:1000D000CDBF22E0A6E3B1E001C01D92A434B20777
:1000E000E1F711E0A0E0B1E0ECE1FAE102C0059037
:1000F0000D92A633B107D9F710E0C2E6D0E004C0F4
:100100002197FE010E94010BC136D107C9F70E9459
:100110006F050C94010D0C9400000895AF92BF92EE
:10012000CF92DF92EF92FF920F931F93CF93DF93C3
:100130006C017B018B01040F151FEB015E01AE18F2
:10014000BF08C017D10759F06991D601ED91FC9114
:100150000190F081E02DC6010995892B79F7C50141
:10016000DF91CF911F910F91FF90EF90DF90CF9093
:10017000BF90AF900895FC01538D448D252F30E042
:10018000842F90E0821B930B541710F0CF960895A4
:1001900001970895FC01918D828D981761F0A28DD1
:1001A000AE0FBF2FB11D5D968C91928D9F5F9F7397
:1001B000928F90E008958FEF9FEF08952FB7F894F6
:1001C0008091800190918101A0918201B091830181
:1001D0002FBF80938C0190938D01A0938E01B093DB
:1001E0008F0184E891E00E94CA0097FF26C02FB7D4
:1001F000F8948091800190918101A0918201B09149
:1002000083012FBF40918C0150918D0160918E012F
:1002100070918F01841B950BA60BB70B4091880141
:100220005091890160918A0170918B018417950723
:10023000A607B707B0F28FEF9FEF0895FC01918DED
:10024000828D981731F0828DE80FF11D858D90E039
:1002500008958FEF9FEF0895FC01918D228D892FD6
:1002600090E0805C9F4F821B91098F7399270895BE
:1002700084E891E00E942C0121E0892B09F420E020
:10028000822F089580E090E0892B29F00E943801A8
:1002900081110C9400000895FC01A48DA80FB92FC2
:1002A000B11DA35ABF4F2C91848D90E001968F739E
:1002B0009927848FA689B7892C93A089B1898C91BD
:1002C000837080648C93938D848D981306C002880C
:1002D000F389E02D80818F7D80830895EF92FF92D6
:1002E0000F931F93CF93DF93EC0181E0888F9B8D59
:1002F0008C8D98131AC0E889F989808185FF15C013
:100300009FB7F894EE89FF896083E889F989808135
:100310008370806480839FBF81E090E0DF91CF9104
:100320001F910F91FF90EF900895F62E0B8D10E026
:100330000F5F1F4F0F731127E02E8C8D8E110CC095
:100340000FB607FCFACFE889F989808185FFF5CFE0
:10035000CE010E944C01F1CFEB8DEC0FFD2FF11D72
:10036000E35AFF4FF0829FB7F8940B8FEA89FB891D
:1003700080818062CFCFCF93DF93EC01888D88237B
:10038000B9F0AA89BB89E889F9898C9185FD03C0F8
:10039000808186FD0DC00FB607FCF7CF8C9185FFDD
:1003A000F2CF808185FFEDCFCE010E944C01E9CFD5
:1003B000DF91CF910895833081F028F4813099F056
:1003C0008230A9F008958730A9F08830C9F08430D0
:1003D000B1F4809180008F7D03C0809180008F7781
:1003E00080938000089584B58F7784BD089584B587
:1003F0008F7DFBCF8091B0008F778093B000089500
:100400008091B0008F7DF9CF1F93CF93DF93282F7A
:1004100030E0F901EE58FF4F8491F901E255FF4FAA
:10042000D491F901E656FF4FC491CC23A9F0162FC1
:1004300081110E94DB01EC2FF0E0EE0FFF1FE0576F
:10044000FF4FA591B4918FB7F894EC91111108C0AA
:10045000D095DE23DC938FBFDF91CF911F9108955C
:10046000DE2BF8CFCF93DF9390E0FC01E255FF4FF6
:10047000249186569F4FFC0184918823C9F090E017
:10048000880F991FFC01E859FF4FA591B491FC0119
:10049000E057FF4FC591D49161110DC09FB7F894FB
:1004A0008C91209582238C938881282328839FBF59
:1004B000DF91CF910895623051F49FB7F8943C9149
:1004C000822F809583238C93E8812E2BEFCF8FB7DB
:1004D000F894EC912E2B2C938FBFEACF3FB7F89472
:1004E0008091770190917801A0917901B0917A0182
:1004F00026B5A89B05C02F3F19F00196A11DB11D7F
:100500003FBFBA2FA92F982F8827BC01CD01620FBA
:10051000711D811D911D42E0660F771F881F991F75
:100520004A95D1F7089520917D0130917E012817D9
:10053000390771F490917B0180917C01981741F00B
:10054000E0917B01F0E0EA5CFE4F808190E008954D
:100550008FEF9FEF08950895EF92FF920F931F93EF
:10056000CF93DF93DC015C96ED90FC905D97E114F6
:10057000F10479F481E090E013969C938E931297A6
:1005800090E080E0DF91CF911F910F91FF90EF906D
:1005900008955196ED91FC91529750968C915097F9
:1005A000982F90950FB75E962C915E97122F127030
:1005B00021FD6095F8942081112319F1282B2083C7
:1005C000E7012197F1F728E0462F50E0308160FFE6
:1005D0001AC0382B3083E7012197F1F7BA017595DE
:1005E0006795215089F7112381F0808189238083C9
:1005F0000FBF5C968D919C910197F1F781E090E09F
:10060000C1CF2923DCCF3923E5CF9081892BEFCFD0
:1006100020917D0130917E012817390771F4809176
:100620007C0120917B0190E0805C9F4F821B9109AF
:1006300060E470E00E94B70A089590E080E00895B9
:1006400020917D0130917E0128173907B9F49091EE
:100650007B0180917C01981789F0E0917B01F0E0AB
:10066000EA5CFE4F808120917B0130E02F5F3F4F9D
:100670002F73332720937B0190E008958FEF9FEF36
:10068000089590E080E00895FC0101900020E9F7D2
:100690003197AF01481B590BBC0184E891E00C94E1
:1006A0008E00FC0180819181009711F00C94A30BC6
:1006B00008950F931F93CF93DF93EC018881998165
:1006C000009759F02A813B812617370730F081E0E7
:1006D000DF91CF911F910F9108958B016F5F7F4F35
:1006E0000E942C0C009759F0998388831B830A83FE
:1006F0002C813D81232B59F7FC011082E8CF80E04B
:10070000E7CFEF92FF920F931F93CF93DF93EC010C
:100710007B018A01BA010E94590328813981811124
:1007200014C02115310519F0C9010E94A30B1982CB
:1007300018821D821C821B821A82CE01DF91CF910A
:100740001F910F91FF90EF9008951D830C83B701C7
:10075000C9010E94FA0CF1CF1F920F920FB60F92AF
:1007600011242F933F934F935F936F937F938F93B6
:100770009F93AF93BF93EF93FF9384E891E00E9420
:100780004C01FF91EF91BF91AF919F918F917F911C
:100790006F915F914F913F912F910F900FBE0F90EE
:1007A0001F9018951F920F920FB60F9211242F933E
:1007B0008F939F93EF93FF93E0919401F0919501B4
:1007C0008081E0919A01F0919B0182FD1BC0908194
:1007D00080919D018F5F8F7320919E01821741F060
:1007E000E0919D01F0E0EC57FE4F958F80939D01C5
:1007F000FF91EF919F918F912F910F900FBE0F90CE
:100800001F9018958081F4CF1F920F920FB60F9210
:1008100011242F933F938F939F93AF93BF93809116
:10082000800190918101A0918201B091830130916A
:10083000760123E0230F2D3758F50196A11DB11D38
:10084000209376018093800190938101A09382018F
:10085000B09383018091770190917801A091790103
:10086000B0917A010196A11DB11D809377019093FB
:100870007801A0937901B0937A01BF91AF919F91D4
:100880008F913F912F910F900FBE0F901F90189551
:1008900026E8230F0296A11DB11DD2CF1F920F9201
:1008A0000FB60F9211242F933F934F935F936F9343
:1008B0007F938F939F93AF93BF93EF93FF93E091B9
:1008C0007D01F0917E01309749F0A685B785858539
:1008D000968D91FF14C09C918923A1F4FF91EF9113
:1008E000BF91AF919F918F917F916F915F914F9148
:1008F0003F912F910F900FBE0F901F9018959C91D4
:10090000892361F7A389B4899C918589809589237E
:100910008C93868997890197F1F7608D718DA685F3
:10092000B785558538E020E0CB010197F1F7822F9C
:1009300090E095958795282F4C91452309F02068E4
:10094000315091F7868D81FD209580917C0190E05A
:1009500001968F73992730917B01381799F0A091F8
:100960007C01B0E0AA5CBE4F2C9380937C01828D09
:10097000938D0197F1F7A389B4898C919589892B7F
:100980008C93ACCF868D8160868FF1CF10928701DA
:100990001092860188EE93E0A0E0B0E08093880199
:1009A00090938901A0938A01B0938B012AE031E0F2
:1009B000309385012093840125EC30E03093910140
:1009C0002093900124EC30E0309393012093920126
:1009D00020EC30E0309395012093940121EC30E03D
:1009E000309397012093960122EC30E030939901E7
:1009F0002093980126EC30E030939B0120939A01DC
:100A000010929D0110929E0110929F011092A001E0
:100A100010922402109223028093250290932602C2
:100A2000A0932702B09328028CE191E090932202D8
:100A300080932102109238021092370210923A02EB
:100A40001092390210923C0210923B0210923E0228
:100A500010923D0260913F026E7F6D7F60933F0276
:100A60006695617081E068270E94040261E081E080
:100A70000E943202EFEAF0E0E491E0933102EBE908
:100A8000F0E0E491F0E0EE0FFF1FE057FF4F85919B
:100A90009491909333028093320260E080E00E9450
:100AA000320280913F0281FD04C061E080E00E943B
:100AB000040210922D02EEEAF0E0E491E0932E029F
:100AC000EAE9F0E0E491F0E0EE0FFF1FEA57FF4F94
:100AD000859194919093300280932F020895CF9343
:100AE000DF93CDB7DEB7CD55D1090FB6F894DEBF91
:100AF0000FBECDBF789484B5826084BD84B581601B
:100B000084BD85B5826085BD85B5816085BD8091D8
:100B10006E00816080936E00109281008091810050
:100B20008260809381008091810081608093810048
:100B3000809180008160809380008091B10084600A
:100B40008093B1008091B00081608093B00080916B
:100B50007A00846080937A0080917A00826080932A
:100B60007A0080917A00816080937A0080917A0087
:100B7000806880937A001092C100E0919401F09116
:100B8000950182E08083E0919001F09191011082C3
:100B9000E0919201F09193018FEC808310929C017F
:100BA000E0919801F091990186E08083E0919601AF
:100BB000F0919701808180618083E0919601F091AE
:100BC0009701808188608083E0919601F091970180
:100BD000808180688083E0919601F0919701808107
:100BE0008F7D80838AE291E00E94440382E391E05A
:100BF0000E94440310923C0210923B0210923A026F
:100C00001092390210923802109237028DE991E069
:100C100090933E0280933D0290912D02963108F010
:100C200047C02DEB30E030933802209337022BE998
:100C300031E030933A02209339022CE231E03093D4
:100C40003C0220933B022091680084E0983048F0F9
:100C500031E09E3008F430E081E001C0880F3A9521
:100C6000EAF7822B809368002DE630E0983050F050
:100C70002BE630E09E3030F02CE630E0963110F07C
:100C800030E020E03093350220933402292F30E009
:100C9000983008F0AAC081E001C0880F9A95EAF761
:100CA0008093360280913D0290913E020197F1F7C8
:100CB00080913B0290913C02892B49F1E0917D01AA
:100CC000F0917E0122E0E132F20709F1309739F02C
:100CD000A389B4899C918589809589238C9380917F
:100CE0003F028E7F80933F0210927C0110927B0125
:100CF00081E292E090937E0180937D01E091340245
:100D0000F0913502808190913602892B808360E0DA
:100D100082E00E94040260E083E00E94040260E03E
:100D200084E00E94040260E085E00E94040260E02A
:100D300086E00E94040260E087E00E94040262E014
:100D40008AE00E9432022AE0422E512C612C712C42
:100D500068961FAE1EAE68976A961FAE1EAE6A9763
:100D60006C961FAE1EAE6C9750E040E064E371E0FD
:100D7000CE018A5A9F4F0E94810381E292E00E9435
:100D80000803181619060CF08DC31A8219821C82EA
:100D90001B821E821D8250E040E064E371E0CE01C0
:100DA00001960E9481030E94DE0097FD2BC08A30CD
:100DB000910541F18DAB1EAA0D811E810F5F1F4F62
:100DC000B801CE0101960E945903882361F329815D
:100DD0003A818D819E81BE016B5C7F4F820F931F94
:100DE0000E94FA0C1E830D83DECF9E3040F4285003
:100DF000310981E001C0880F2A95EAF751CF2E50C2
:100E00003109F7CF68968EAD9FAD6897009799F13D
:100E100069817A816115710561F16A964EAD5FADA8
:100E20006A972D813E814217530718F10E94FA0CF0
:100E30008D819E816C969FAF8EAF6C971E821D82B6
:100E4000CE0101960E94510368960EAD1FAD6897C2
:100E50000115110539F1F80181918F01882311F1F4
:100E6000082E000C990B0E94E90CF8013197808341
:100E7000F2CF0E94A30B89819A8168969FAF8EAFB3
:100E800068978B819C816A969FAF8EAF6A978D81A0
:100E90009E816C969FAF8EAF6C971A8219821C82CE
:100EA0001B82CCCF1EAA1DAA18AE1FAA1AAE19AE5D
:100EB00068966EAD7FAD68976115710541F06C96CF
:100EC0004EAD5FAD6C97CE01C5960E948103A9AC73
:100ED000BAACD12CC12CF12CE12C01E010E0CA14E9
:100EE000DB040CF0CEC189AD9AADC816D90620F44A
:100EF000EDA9FEA9309799F410927F01EFE7F1E098
:100F00008081813679F48CE090E00E94070BFC012F
:100F1000118300831382128215821482B6C0EC0DF5
:100F2000FD1DEECF823681F48CE090E00E94070B2D
:100F3000FC011183008313830283158214821782BC
:100F400016821186108623C0833681F48CE090E0EF
:100F50000E94070BFC011183008313821282158209
:100F60001482178306831186108637C0843621F5D4
:100F70008CE090E00E94070BFC0111830083138238
:100F800012821582148217830683118700871386C5
:100F90001286D7011196AA0FBB1F81E090E08C0F3B
:100FA0009D1FA80FB91FED93FC933FEFE31AF30ABF
:100FB0008FEFC81AD80A93CF853691F48CE090E071
:100FC0000E94070BFC011183008313821282158299
:100FD0001482178216821187008713861286E5C055
:100FE000863671F48CE090E00E94070BFC011183BF
:100FF0000083138302831582148217830683A1CF93
:10100000873671F48CE090E00E94070BFC0111839D
:101010000083138302831582148217830683DBCF38
:10102000883671F48CE090E00E94070BFC0111837C
:101030000083138302831582148217821682A5CF40
:10104000893651F48CE090E00E94070BFC0111827C
:1010500010821383028383CF8A3651F48CE090E0B0
:101060000E94070BFC01118210821383028389CF37
:101070008B3671F48CE090E00E94070BFC01118329
:1010800000831382128215830483178216826BCF2A
:101090008C3661F48CE090E00E94070BFC01118318
:1010A0000083138302831583048349CF8D3661F453
:1010B0008CE090E00E94070BFC01118300831382F7
:1010C0001282158304834DCF8E3661F48CE090E05C
:1010D0000E94070BFC011183008313821282158387
:1010E000048351CF8F3661F48CE090E00E94070BAF
:1010F000FC0111830083138212821583048369CF5C
:10110000803761F48CE090E00E94070BFC011183B2
:10111000008313830283158304836FCF813761F4C7
:101120008CE090E00E94070BFC0111830083138385
:1011300002831583048371CF823761F48CE090E0E1
:101140000E94070BFC011183008313830283158324
:10115000048373CF833751F48CE090E00E94070B37
:10116000FC011182108213830283ABCF843751F4C8
:101170008CE090E00E94070BFC0111821082138327
:101180000283ADCF8537E1F48CE090E00E94070B3D
:10119000FC0111830083138212821583048317825A
:1011A00016821186108613870287D7011196AA0F1F
:1011B000BB1F21E030E02C0F3D1FA20FB31FF3CE69
:1011C000863791F48CE090E00E94070BFC011183BC
:1011D000008313830283158304831782168211868A
:1011E000108613870287D5CE883771F48CE090E0A3
:1011F0000E94070BFC011183008313821282158366
:10120000048317830683CDCF893781F48CE090E087
:101210000E94070BFC011183008313821282158345
:1012200004831783068311870087DBCF8A3781F415
:101230008CE090E00E94070BFC0111830083138275
:101240001282158304831782168211870087ABCF21
:10125000873761F48CE090E00E94070BFC0111825B
:1012600010821383028315821482DBCF803209F44B
:101270009FCE8CE090E00E94070BFC01118210824F
:1012800049CECE01C5960E9451031E0193E0290E5E
:10129000311C6E961FAE1EAE6E976C968EAD9FADD6
:1012A0006C976E96EEADFFAD6E97E817F90708F0F4
:1012B000F9C0F101019111911F0158014801FCE0B1
:1012C0008F0E911CF501C190D1905F010D2C000C87
:1012D000EE08FF08F7FEC9C06DE284E891E00E94C5
:1012E0006E0122273327A9012C193D094E095F09F8
:1012F00066961FAE669775E3E72EF12CEC0EFD1E89
:10130000F0E2EF0EF11CCA01B901A30192010E94A3
:10131000CB0A605DF70162937F012115310541051C
:10132000510589F7E114F10419F0C7010E94440343
:1013300082E391E00E9444038A149B0419F6F801A9
:1013400080819181019721F461E082E00E94040292
:10135000F80182819381019721F461E083E00E948A
:101360000402F80184819581019721F461E084E011
:101370000E940402F80186819781019721F461E0BF
:1013800085E00E940402F80180859185019721F48F
:1013900061E086E00E940402F8018285938501974E
:1013A00021F461E087E00E940402ECE7F0E0849120
:1013B000E8EBF0E01491E4EAF0E00491002371F02E
:1013C00081110E94DB01E02FF0E0EE0FFF1FEA57D2
:1013D000FF4FA591B4918C91182339F760E082E01A
:1013E0000E94040260E083E00E94040260E084E066
:1013F0000E94040260E085E00E94040260E086E052
:101400000E94040260E087E00E9404020E946E02D3
:101410006B017C0188EE882E83E0982EA12CB12CE4
:101420000E946E026C197D098E099F09683E734007
:1014300081059105A8F3F1E08F1A9108A108B10880
:1014400028EEC20E23E0D21EE11CF11C811491048F
:10145000A104B10429F76E968EAD9FAD6E970196EB
:101460006E969FAF8EAF6E9718CFA70196016696C6
:101470001FAE669765E3E62EF12CEC0EFD1EF0E242
:10148000EF0EF11CCA01B901A30192010E94CB0A1F
:10149000605DF70162937F0121153105410551051A
:1014A00089F740CFCE018A5A9F4F0E94510380E0B6
:1014B00090E0892B09F44CCC0E943801882309F470
:1014C00047CC0E94000044CC8CE191E09093220232
:1014D0008093210280917D0190917E018152924002
:1014E00071F4E0913402F0913502908180913602DE
:1014F00080958923808310927E0110927D0108954A
:101500002F923F924F925F926F927F928F929F9213
:10151000AF92BF92CF92DF92EF92FF920F931F9301
:10152000CF93DF93CDB7DEB7CA1BDB0B0FB6F894B2
:10153000DEBF0FBECDBF09942A88398848885F84F2
:101540006E847D848C849B84AA84B984C884DF8063
:10155000EE80FD800C811B81AA81B981CE0FD11D47
:101560000FB6F894DEBF0FBECDBFED01089597FB17
:10157000072E16F4009407D077FD09D00E94ED0ADB
:1015800007FC05D03EF4909581959F4F0895709586
:1015900061957F4F0895A1E21A2EAA1BBB1BFD0186
:1015A0000DC0AA1FBB1FEE1FFF1FA217B307E40742
:1015B000F50720F0A21BB30BE40BF50B661F771F9A
:1015C000881F991F1A9469F760957095809590957A
:1015D0009B01AC01BD01CF010895AA1BBB1B51E1CA
:1015E00007C0AA1FBB1FA617B70710F0A61BB70B93
:1015F000881F991F5A95A9F780959095BC01CD0138
:101600000895EE0FFF1F0590F491E02D09940F93BC
:101610001F93CF93DF938230910510F482E090E026
:10162000E0914202F091430230E020E0B0E0A0E01F
:10163000309799F42115310509F44AC0281B390B5C
:1016400024303105D8F58A819B816115710589F1B6
:10165000FB0193838283FE0111C04081518102818D
:10166000138148175907E0F04817590799F4109764
:1016700061F012960C93129713961C933296CF0139
:10168000DF91CF911F910F91089500934202109323
:101690004302F4CF2115310551F04217530738F0BA
:1016A000A901DB019A01BD01DF01F801C1CFEF0102
:1016B000F9CF9093430280934202CDCFFE01E20F17
:1016C000F31F819391932250310939832883D7CF17
:1016D0002091400230914102232B41F420910201DC
:1016E0003091030130934102209340022091000188
:1016F000309101012115310541F42DB73EB74091DC
:10170000040150910501241B350BE0914002F0913A
:101710004102E217F307A0F42E1B3F0B28173907ED
:1017200078F0AC014E5F5F4F2417350748F04E0F3D
:101730005F1F5093410240934002819391939FCF4A
:10174000F0E0E0E09CCFCF93DF930097E9F0FC015D
:10175000329713821282A0914202B0914302ED01AE
:1017600030E020E01097A1F420813181820F931F97
:1017700020914002309141022817390709F061C0D9
:10178000F0934102E0934002DF91CF910895EA0186
:10179000CE17DF07E8F54A815B819E0141155105AF
:1017A000B1F7E901FB83EA8349915991C40FD51F31
:1017B000EC17FD0761F4808191810296840F951FDB
:1017C000E90199838883828193819B838A83F0E0F6
:1017D000E0E012968D919C9113970097B9F52D91A9
:1017E0003C911197CD010296820F931F20914002E8
:1017F000309141022817390739F6309751F5109288
:10180000430210924202B0934102A0934002BCCF27
:10181000D383C28340815181840F951FC817D90794
:1018200061F44E5F5F4F88819981480F591F518342
:1018300040838A819B81938382832115310509F03E
:10184000B0CFF0934302E09342029ECFFD01DC0152
:10185000C0CF13821282D7CFB0E0A0E0E2E3FCE079
:101860000C94820A8C01009751F4CB010E94070B63
:101870008C01C801CDB7DEB7E0E10C949E0AFC01F3
:10188000E60FF71F9C0122503109E217F30708F415
:101890009DC0D901CD91DC911197C617D70798F05B
:1018A000C530D10530F3CE0104978617970708F3AA
:1018B000C61BD70B2297C193D1936D937C93CF0115
:1018C0000E94A30BD6CF5B01AC1ABD0A4C018C0E53
:1018D0009D1EA0914202B0914302512C412CF12C4B
:1018E000E12C109731F580914002909141028815CA
:1018F000990509F05CC04616570608F058C080915B
:10190000000190910101009741F48DB79EB740917D
:10191000040150910501841B950BE817F90708F0A5
:1019200055C0F0934102E0934002F9017183608356
:10193000A0CF8D919C91119712966C90129713964F
:101940007C901397A815B90559F56C0142E0C40EB7
:10195000D11CCA14DB0420F1AC014A195B09DA017D
:101960001296159780F06282738251834083D90169
:101970006D937C93E114F10471F0D7011396FC93FD
:10198000EE93129776CF22968C0F9D1FF9019183CB
:101990008083F301EFCFF0934302E093420269CFDB
:1019A0004816590608F42C017D01D3019ACFCB01CA
:1019B0000E94070B7C01009749F0AE01B8010E941C
:1019C000F10CC8010E94A30B870153CF10E000E087
:1019D00050CF9111089581548A5108F4805E855A40
:1019E0000895FB01DC0102C001900D92415050406E
:1019F000D8F70895FB01DC0101900D920020E1F77A
:101A0000089510E0C2E6D0E004C0FE010E94010B80
:0C1A10002196C336D107C9F7F894FFCF28
:101A1C00000044028000000000006E018E00BB003C
:101A2C00BB012C01CA001E0100000000AC028E009C
:101A3C004103AB0208032003930273C5826F776FD7
:061A4C003A000D0A000043
:00000001FF
